{
  "_format": "hh-sol-artifact-1",
  "contractName": "PiggyBankFactory",
  "sourceName": "contracts/PBFactoryContract.sol",
  "abi": [
    {
      "inputs": [
        {
          "internalType": "address",
          "name": "_developerAddress",
          "type": "address"
        }
      ],
      "stateMutability": "nonpayable",
      "type": "constructor"
    },
    {
      "anonymous": false,
      "inputs": [
        {
          "indexed": true,
          "internalType": "address",
          "name": "piggyBankAddress",
          "type": "address"
        },
        {
          "indexed": false,
          "internalType": "string",
          "name": "savingPurpose",
          "type": "string"
        }
      ],
      "name": "PiggyBankCreated",
      "type": "event"
    },
    {
      "inputs": [
        {
          "internalType": "string",
          "name": "_savingPurpose",
          "type": "string"
        },
        {
          "internalType": "uint256",
          "name": "_savingDuration",
          "type": "uint256"
        },
        {
          "internalType": "bytes32",
          "name": "salt",
          "type": "bytes32"
        }
      ],
      "name": "createPiggyBank",
      "outputs": [
        {
          "internalType": "address",
          "name": "",
          "type": "address"
        }
      ],
      "stateMutability": "nonpayable",
      "type": "function"
    },
    {
      "inputs": [],
      "name": "developerAddress",
      "outputs": [
        {
          "internalType": "address",
          "name": "",
          "type": "address"
        }
      ],
      "stateMutability": "view",
      "type": "function"
    },
    {
      "inputs": [],
      "name": "getPiggyBanks",
      "outputs": [
        {
          "internalType": "address[]",
          "name": "",
          "type": "address[]"
        }
      ],
      "stateMutability": "view",
      "type": "function"
    },
    {
      "inputs": [
        {
          "internalType": "uint256",
          "name": "",
          "type": "uint256"
        }
      ],
      "name": "piggyBanks",
      "outputs": [
        {
          "internalType": "address",
          "name": "",
          "type": "address"
        }
      ],
      "stateMutability": "view",
      "type": "function"
    }
  ],
  "bytecode": "0x608060405234801561001057600080fd5b506040516123fa3803806123fa833981810160405281019061003291906100dc565b80600160006101000a81548173ffffffffffffffffffffffffffffffffffffffff021916908373ffffffffffffffffffffffffffffffffffffffff16021790555050610109565b600080fd5b600073ffffffffffffffffffffffffffffffffffffffff82169050919050565b60006100a98261007e565b9050919050565b6100b98161009e565b81146100c457600080fd5b50565b6000815190506100d6816100b0565b92915050565b6000602082840312156100f2576100f1610079565b5b6000610100848285016100c7565b91505092915050565b6122e2806101186000396000f3fe608060405234801561001057600080fd5b506004361061004c5760003560e01c80632074f2cd146100515780633c6bb3f914610081578063caccd7f7146100b1578063fadcfd79146100cf575b600080fd5b61006b600480360381019061006691906104d3565b6100ed565b6040516100789190610583565b60405180910390f35b61009b6004803603810190610096919061059e565b61020d565b6040516100a89190610583565b60405180910390f35b6100b961024c565b6040516100c69190610583565b60405180910390f35b6100d7610272565b6040516100e49190610689565b60405180910390f35b600080828585600160009054906101000a900473ffffffffffffffffffffffffffffffffffffffff1660405161012290610300565b61012e93929190610739565b8190604051809103906000f590508015801561014e573d6000803e3d6000fd5b5090506000819080600181540180825580915050600190039060005260206000200160009091909190916101000a81548173ffffffffffffffffffffffffffffffffffffffff021916908373ffffffffffffffffffffffffffffffffffffffff1602179055508073ffffffffffffffffffffffffffffffffffffffff167f52190ee41e06c3f26c60295ae1c0f819e1eadb877c40388508f86dd5cbd8e393866040516101fa9190610777565b60405180910390a2809150509392505050565b6000818154811061021d57600080fd5b906000526020600020016000915054906101000a900473ffffffffffffffffffffffffffffffffffffffff1681565b600160009054906101000a900473ffffffffffffffffffffffffffffffffffffffff1681565b606060008054806020026020016040519081016040528092919081815260200182805480156102f657602002820191906000526020600020905b8160009054906101000a900473ffffffffffffffffffffffffffffffffffffffff1673ffffffffffffffffffffffffffffffffffffffff16815260200190600101908083116102ac575b5050505050905090565b611b138061079a83390190565b6000604051905090565b600080fd5b600080fd5b600080fd5b600080fd5b6000601f19601f8301169050919050565b7f4e487b7100000000000000000000000000000000000000000000000000000000600052604160045260246000fd5b6103748261032b565b810181811067ffffffffffffffff821117156103935761039261033c565b5b80604052505050565b60006103a661030d565b90506103b2828261036b565b919050565b600067ffffffffffffffff8211156103d2576103d161033c565b5b6103db8261032b565b9050602081019050919050565b82818337600083830152505050565b600061040a610405846103b7565b61039c565b90508281526020810184848401111561042657610425610326565b5b6104318482856103e8565b509392505050565b600082601f83011261044e5761044d610321565b5b813561045e8482602086016103f7565b91505092915050565b6000819050919050565b61047a81610467565b811461048557600080fd5b50565b60008135905061049781610471565b92915050565b6000819050919050565b6104b08161049d565b81146104bb57600080fd5b50565b6000813590506104cd816104a7565b92915050565b6000806000606084860312156104ec576104eb610317565b5b600084013567ffffffffffffffff81111561050a5761050961031c565b5b61051686828701610439565b935050602061052786828701610488565b9250506040610538868287016104be565b9150509250925092565b600073ffffffffffffffffffffffffffffffffffffffff82169050919050565b600061056d82610542565b9050919050565b61057d81610562565b82525050565b60006020820190506105986000830184610574565b92915050565b6000602082840312156105b4576105b3610317565b5b60006105c284828501610488565b91505092915050565b600081519050919050565b600082825260208201905092915050565b6000819050602082019050919050565b61060081610562565b82525050565b600061061283836105f7565b60208301905092915050565b6000602082019050919050565b6000610636826105cb565b61064081856105d6565b935061064b836105e7565b8060005b8381101561067c5781516106638882610606565b975061066e8361061e565b92505060018101905061064f565b5085935050505092915050565b600060208201905081810360008301526106a3818461062b565b905092915050565b600081519050919050565b600082825260208201905092915050565b60005b838110156106e55780820151818401526020810190506106ca565b60008484015250505050565b60006106fc826106ab565b61070681856106b6565b93506107168185602086016106c7565b61071f8161032b565b840191505092915050565b61073381610467565b82525050565b6000606082019050818103600083015261075381866106f1565b9050610762602083018561072a565b61076f6040830184610574565b949350505050565b6000602082019050818103600083015261079181846106f1565b90509291505056fe608060405234801561001057600080fd5b50604051611b13380380611b1383398181016040528101906100329190610426565b336000806101000a81548173ffffffffffffffffffffffffffffffffffffffff021916908373ffffffffffffffffffffffffffffffffffffffff160217905550826001908161008191906106ac565b50816002819055504260038190555080600460006101000a81548173ffffffffffffffffffffffffffffffffffffffff021916908373ffffffffffffffffffffffffffffffffffffffff16021790555060016006600073a0b86991c6218b36c1d19d4a2e9eb0ce3606eb4873ffffffffffffffffffffffffffffffffffffffff1673ffffffffffffffffffffffffffffffffffffffff16815260200190815260200160002060006101000a81548160ff021916908315150217905550600160066000736b175474e89094c44da98b954eedeac495271d0f73ffffffffffffffffffffffffffffffffffffffff1673ffffffffffffffffffffffffffffffffffffffff16815260200190815260200160002060006101000a81548160ff02191690831515021790555060016006600073dac17f958d2ee523a2206206994597c13d831ec773ffffffffffffffffffffffffffffffffffffffff1673ffffffffffffffffffffffffffffffffffffffff16815260200190815260200160002060006101000a81548160ff02191690831515021790555050505061077e565b6000604051905090565b600080fd5b600080fd5b600080fd5b600080fd5b6000601f19601f8301169050919050565b7f4e487b7100000000000000000000000000000000000000000000000000000000600052604160045260246000fd5b6102848261023b565b810181811067ffffffffffffffff821117156102a3576102a261024c565b5b80604052505050565b60006102b661021d565b90506102c2828261027b565b919050565b600067ffffffffffffffff8211156102e2576102e161024c565b5b6102eb8261023b565b9050602081019050919050565b60005b838110156103165780820151818401526020810190506102fb565b60008484015250505050565b6000610335610330846102c7565b6102ac565b90508281526020810184848401111561035157610350610236565b5b61035c8482856102f8565b509392505050565b600082601f83011261037957610378610231565b5b8151610389848260208601610322565b91505092915050565b6000819050919050565b6103a581610392565b81146103b057600080fd5b50565b6000815190506103c28161039c565b92915050565b600073ffffffffffffffffffffffffffffffffffffffff82169050919050565b60006103f3826103c8565b9050919050565b610403816103e8565b811461040e57600080fd5b50565b600081519050610420816103fa565b92915050565b60008060006060848603121561043f5761043e610227565b5b600084015167ffffffffffffffff81111561045d5761045c61022c565b5b61046986828701610364565b935050602061047a868287016103b3565b925050604061048b86828701610411565b9150509250925092565b600081519050919050565b7f4e487b7100000000000000000000000000000000000000000000000000000000600052602260045260246000fd5b600060028204905060018216806104e757607f821691505b6020821081036104fa576104f96104a0565b5b50919050565b60008190508160005260206000209050919050565b60006020601f8301049050919050565b600082821b905092915050565b6000600883026105627fffffffffffffffffffffffffffffffffffffffffffffffffffffffffffffffff82610525565b61056c8683610525565b95508019841693508086168417925050509392505050565b6000819050919050565b60006105a96105a461059f84610392565b610584565b610392565b9050919050565b6000819050919050565b6105c38361058e565b6105d76105cf826105b0565b848454610532565b825550505050565b600090565b6105ec6105df565b6105f78184846105ba565b505050565b5b8181101561061b576106106000826105e4565b6001810190506105fd565b5050565b601f8211156106605761063181610500565b61063a84610515565b81016020851015610649578190505b61065d61065585610515565b8301826105fc565b50505b505050565b600082821c905092915050565b600061068360001984600802610665565b1980831691505092915050565b600061069c8383610672565b9150826002028217905092915050565b6106b582610495565b67ffffffffffffffff8111156106ce576106cd61024c565b5b6106d882546104cf565b6106e382828561061f565b600060209050601f8311600181146107165760008415610704578287015190505b61070e8582610690565b865550610776565b601f19841661072486610500565b60005b8281101561074c57848901518255600182019150602085019450602081019050610727565b868310156107695784890151610765601f891682610672565b8355505b6001600288020188555050505b505050505050565b6113868061078d6000396000f3fe608060405234801561001057600080fd5b50600436106100a95760003560e01c80636ff1c9bc116100715780636ff1c9bc146101525780638da5cb5b1461016e578063c3fafb9c1461018c578063c80ec522146101aa578063caccd7f7146101c8578063d8270dce146101e6576100a9565b80630dfd59a6146100ae57806327e235e3146100cc5780633ccfd60b146100fc57806347e7ef241461010657806368c4ac2614610122575b600080fd5b6100b6610204565b6040516100c39190610c39565b60405180910390f35b6100e660048036038101906100e19190610cb7565b61020a565b6040516100f39190610c39565b60405180910390f35b610104610222565b005b610120600480360381019061011b9190610d10565b610377565b005b61013c60048036038101906101379190610cb7565b6104de565b6040516101499190610d6b565b60405180910390f35b61016c60048036038101906101679190610cb7565b6104fe565b005b610176610853565b6040516101839190610d95565b60405180910390f35b610194610877565b6040516101a19190610e40565b60405180910390f35b6101b2610905565b6040516101bf9190610d6b565b60405180910390f35b6101d0610918565b6040516101dd9190610d95565b60405180910390f35b6101ee61093e565b6040516101fb9190610c39565b60405180910390f35b60025481565b60056020528060005260406000206000915090505481565b60008054906101000a900473ffffffffffffffffffffffffffffffffffffffff1673ffffffffffffffffffffffffffffffffffffffff163373ffffffffffffffffffffffffffffffffffffffff16146102b0576040517f08c379a00000000000000000000000000000000000000000000000000000000081526004016102a790610ed4565b60405180910390fd5b600760009054906101000a900460ff1615610300576040517f08c379a00000000000000000000000000000000000000000000000000000000081526004016102f790610f66565b60405180910390fd5b6002546003546103109190610fb5565b421015610352576040517f08c379a000000000000000000000000000000000000000000000000000000000815260040161034990611035565b60405180910390fd5b6001600760006101000a81548160ff021916908315150217905550610375610944565b565b600660008373ffffffffffffffffffffffffffffffffffffffff1673ffffffffffffffffffffffffffffffffffffffff16815260200190815260200160002060009054906101000a900460ff16610403576040517f08c379a00000000000000000000000000000000000000000000000000000000081526004016103fa906110a1565b60405180910390fd5b8173ffffffffffffffffffffffffffffffffffffffff166323b872dd3330846040518463ffffffff1660e01b8152600401610440939291906110c1565b6020604051808303816000875af115801561045f573d6000803e3d6000fd5b505050506040513d601f19601f820116820180604052508101906104839190611124565b5080600560003373ffffffffffffffffffffffffffffffffffffffff1673ffffffffffffffffffffffffffffffffffffffff16815260200190815260200160002060008282546104d39190610fb5565b925050819055505050565b60066020528060005260406000206000915054906101000a900460ff1681565b60008054906101000a900473ffffffffffffffffffffffffffffffffffffffff1673ffffffffffffffffffffffffffffffffffffffff163373ffffffffffffffffffffffffffffffffffffffff161461058c576040517f08c379a000000000000000000000000000000000000000000000000000000000815260040161058390610ed4565b60405180910390fd5b600760009054906101000a900460ff16156105dc576040517f08c379a00000000000000000000000000000000000000000000000000000000081526004016105d390610f66565b60405180910390fd5b600660008273ffffffffffffffffffffffffffffffffffffffff1673ffffffffffffffffffffffffffffffffffffffff16815260200190815260200160002060009054906101000a900460ff16610668576040517f08c379a000000000000000000000000000000000000000000000000000000000815260040161065f906110a1565b60405180910390fd5b60006064600f600560003373ffffffffffffffffffffffffffffffffffffffff1673ffffffffffffffffffffffffffffffffffffffff168152602001908152602001600020546106b89190611151565b6106c291906111c2565b9050600081600560003373ffffffffffffffffffffffffffffffffffffffff1673ffffffffffffffffffffffffffffffffffffffff1681526020019081526020016000205461071191906111f3565b90508273ffffffffffffffffffffffffffffffffffffffff1663a9059cbb600460009054906101000a900473ffffffffffffffffffffffffffffffffffffffff16846040518363ffffffff1660e01b8152600401610770929190611227565b6020604051808303816000875af115801561078f573d6000803e3d6000fd5b505050506040513d601f19601f820116820180604052508101906107b39190611124565b508273ffffffffffffffffffffffffffffffffffffffff1663a9059cbb33836040518363ffffffff1660e01b81526004016107ef929190611227565b6020604051808303816000875af115801561080e573d6000803e3d6000fd5b505050506040513d601f19601f820116820180604052508101906108329190611124565b506001600760006101000a81548160ff021916908315150217905550505050565b60008054906101000a900473ffffffffffffffffffffffffffffffffffffffff1681565b600180546108849061127f565b80601f01602080910402602001604051908101604052809291908181526020018280546108b09061127f565b80156108fd5780601f106108d2576101008083540402835291602001916108fd565b820191906000526020600020905b8154815290600101906020018083116108e057829003601f168201915b505050505081565b600760009054906101000a900460ff1681565b600460009054906101000a900473ffffffffffffffffffffffffffffffffffffffff1681565b60035481565b6000600367ffffffffffffffff811115610961576109606112b0565b5b60405190808252806020026020018201604052801561098f5781602001602082028036833780820191505090505b50905073a0b86991c6218b36c1d19d4a2e9eb0ce3606eb48816000815181106109bb576109ba6112df565b5b602002602001019073ffffffffffffffffffffffffffffffffffffffff16908173ffffffffffffffffffffffffffffffffffffffff1681525050736b175474e89094c44da98b954eedeac495271d0f81600181518110610a1e57610a1d6112df565b5b602002602001019073ffffffffffffffffffffffffffffffffffffffff16908173ffffffffffffffffffffffffffffffffffffffff168152505073dac17f958d2ee523a2206206994597c13d831ec781600281518110610a8157610a806112df565b5b602002602001019073ffffffffffffffffffffffffffffffffffffffff16908173ffffffffffffffffffffffffffffffffffffffff168152505060005b8151811015610c1c576000828281518110610adc57610adb6112df565b5b6020026020010151905060008173ffffffffffffffffffffffffffffffffffffffff166370a08231306040518263ffffffff1660e01b8152600401610b219190610d95565b602060405180830381865afa158015610b3e573d6000803e3d6000fd5b505050506040513d601f19601f82011682018060405250810190610b629190611323565b90506000811115610c0d578173ffffffffffffffffffffffffffffffffffffffff1663a9059cbb60008054906101000a900473ffffffffffffffffffffffffffffffffffffffff16836040518363ffffffff1660e01b8152600401610bc8929190611227565b6020604051808303816000875af1158015610be7573d6000803e3d6000fd5b505050506040513d601f19601f82011682018060405250810190610c0b9190611124565b505b50508080600101915050610abe565b5050565b6000819050919050565b610c3381610c20565b82525050565b6000602082019050610c4e6000830184610c2a565b92915050565b600080fd5b600073ffffffffffffffffffffffffffffffffffffffff82169050919050565b6000610c8482610c59565b9050919050565b610c9481610c79565b8114610c9f57600080fd5b50565b600081359050610cb181610c8b565b92915050565b600060208284031215610ccd57610ccc610c54565b5b6000610cdb84828501610ca2565b91505092915050565b610ced81610c20565b8114610cf857600080fd5b50565b600081359050610d0a81610ce4565b92915050565b60008060408385031215610d2757610d26610c54565b5b6000610d3585828601610ca2565b9250506020610d4685828601610cfb565b9150509250929050565b60008115159050919050565b610d6581610d50565b82525050565b6000602082019050610d806000830184610d5c565b92915050565b610d8f81610c79565b82525050565b6000602082019050610daa6000830184610d86565b92915050565b600081519050919050565b600082825260208201905092915050565b60005b83811015610dea578082015181840152602081019050610dcf565b60008484015250505050565b6000601f19601f8301169050919050565b6000610e1282610db0565b610e1c8185610dbb565b9350610e2c818560208601610dcc565b610e3581610df6565b840191505092915050565b60006020820190508181036000830152610e5a8184610e07565b905092915050565b7f4f6e6c79206f776e65722063616e2063616c6c20746869732066756e6374696f60008201527f6e00000000000000000000000000000000000000000000000000000000000000602082015250565b6000610ebe602183610dbb565b9150610ec982610e62565b604082019050919050565b60006020820190508181036000830152610eed81610eb1565b9050919050565b7f46756e6473206861766520616c7265616479206265656e20776974686472617760008201527f6e00000000000000000000000000000000000000000000000000000000000000602082015250565b6000610f50602183610dbb565b9150610f5b82610ef4565b604082019050919050565b60006020820190508181036000830152610f7f81610f43565b9050919050565b7f4e487b7100000000000000000000000000000000000000000000000000000000600052601160045260246000fd5b6000610fc082610c20565b9150610fcb83610c20565b9250828201905080821115610fe357610fe2610f86565b5b92915050565b7f46756e64732063616e6e6f742062652077697468647261776e20796574000000600082015250565b600061101f601d83610dbb565b915061102a82610fe9565b602082019050919050565b6000602082019050818103600083015261104e81611012565b9050919050565b7f546f6b656e206e6f7420737570706f7274656400000000000000000000000000600082015250565b600061108b601383610dbb565b915061109682611055565b602082019050919050565b600060208201905081810360008301526110ba8161107e565b9050919050565b60006060820190506110d66000830186610d86565b6110e36020830185610d86565b6110f06040830184610c2a565b949350505050565b61110181610d50565b811461110c57600080fd5b50565b60008151905061111e816110f8565b92915050565b60006020828403121561113a57611139610c54565b5b60006111488482850161110f565b91505092915050565b600061115c82610c20565b915061116783610c20565b925082820261117581610c20565b9150828204841483151761118c5761118b610f86565b5b5092915050565b7f4e487b7100000000000000000000000000000000000000000000000000000000600052601260045260246000fd5b60006111cd82610c20565b91506111d883610c20565b9250826111e8576111e7611193565b5b828204905092915050565b60006111fe82610c20565b915061120983610c20565b925082820390508181111561122157611220610f86565b5b92915050565b600060408201905061123c6000830185610d86565b6112496020830184610c2a565b9392505050565b7f4e487b7100000000000000000000000000000000000000000000000000000000600052602260045260246000fd5b6000600282049050600182168061129757607f821691505b6020821081036112aa576112a9611250565b5b50919050565b7f4e487b7100000000000000000000000000000000000000000000000000000000600052604160045260246000fd5b7f4e487b7100000000000000000000000000000000000000000000000000000000600052603260045260246000fd5b60008151905061131d81610ce4565b92915050565b60006020828403121561133957611338610c54565b5b60006113478482850161130e565b9150509291505056fea264697066735822122078667fb5522a129cd93af4f02a1170b9271edbef8fd2c925d6cd4d205b83810164736f6c634300081c0033a264697066735822122095344020d2d81148d5552979d0013ded6cd288dfc787fe65e6abc98481a35cb964736f6c634300081c0033",
  "linkReferences": {},
  "deployedLinkReferences": {}
}